:040000005FEF1AF0A4
:10080000000000803F000020410000C84200007A44
:100810004400401C460050C3470024744980961889
:100820004B20BCBE4C286B6E4EF9021550EC78ADD7
:1008300060CAF249710000803FCDCCCC3D0AD7237D
:100840003C6F12833A17B7D138ACC52737BD37860E
:100850003595BFD63377CC2B325F708930FFE6DB1E
:100860002E08E53C1E6042A20D010000000A0000B7
:100870000064000000E803000010270000A08601CB
:100880000040420F008096980000E1F50500CA9AEA
:100890003B252E3066252500252E30664300252E6B
:1008A00030660055523A0054633A0050683A0000EE
:1008B000550E0001646F000E656F5DEF09F0250EA7
:1008C0007C19D8B466EF04F068EF04F072EF04F01E
:1008D00051C0D9FF52C0DAFF7CC0DFFF514A522A13
:1008E0005DEF09F0000E6B6F000E6A6F53C0F6FFEC
:1008F00054C0F7FF0800F5502E0AD8A482EF04F088
:1009000084EF04F0BEEF04F06B8D534A542A000EBE
:100910007B6F000E7A6FABEF04F07AC001F07BC002
:1009200002F0000E046E0A0E036E4DEC1BF053C075
:10093000F6FF54C0F7FF0800F5500126000E022212
:10094000D00E012400017A6FFF0E02207B6F534A04
:10095000542AABEF04F053C0F6FF54C0F7FF080071
:10096000F55030EC1BF0D8B0B8EF04F0BAEF04F05B
:100970008DEF04F016EF05F016EF05F0000E000104
:100980007B6F000E7A6F6B8916EF05F016EF05F09E
:1009900072EF09F06B852BEF05F07A517B11D8B41B
:1009A000D4EF04F0D6EF04F0F9EF04F068517A5D6B
:1009B00069517B59D8B0DFEF04F0E1EF04F0F9EFB3
:1009C00004F07AC068F07BC069F0F9EF04F0F9EF49
:1009D00004F066C0D9FF67C0DAFF51C0E1FF52C022
:1009E000E2FFDFCFE7FF664B672B514A522AF9EF50
:1009F00004F06807D8A06907682906E16929D8A426
:100A000004EF05F006EF05F0E9EF04F05DEF09F003
:100A10005DEF09F07C0E666F000E676F000E696F68
:100A2000010E686FCDEF04F02BEF05F053C0F6FF19
:100A300054C0F7FF534A542A0800F5CF7CF0000158
:100A40007C51000AD8B472EF09F0660AD8B4CAEF34
:100A500004F00AEF05F0070E6B15D8B432EF05F07D
:100A600034EF05F0FDEF08F06BA939EF05F03BEF2F
:100A700005F041EF05F0000E7B6F060E7A6F41EF37
:100A800005F064C0D9FF65C0DAFFDECF76F0DECFB7
:100A900077F0DECF78F0DECF79F0040E6427000E19
:100AA000652379BF58EF05F056EF05F06FEF05F0BD
:100AB00076C001F077C002F078C003F079C004F08E
:100AC00010EC1BF001C076F002C077F003C078F0A4
:100AD00004C079F0030E00016A136FEF05F0000EF9
:100AE000716F000E706F7651771178117911D8B44B
:100AF0007CEF05F07EEF05F018EF06F078357935DC
:100B0000820F706F716BFF0E71237007D8A0710791
:100B100070C001F071C002F0000E046E030E036E8F
:100B20004DEC1BF001C070F002C071F070C007F016
:100B300071C008F0000E0A6E0A0E096EB4EC17F0D0
:100B400007C070F008C071F0000171BFACEF05F094
:100B5000AAEF05F0B1EF05F07007D8A07107B1EF6B
:100B600005F0705100083EEC0CF028C072F029C06E
:100B700073F02AC074F02BC075F072C00FF073C010
:100B800010F074C011F075C012F076C013F077C089
:100B900014F078C015F079C016F08CEC0EF00FC090
:100BA00072F010C073F011C074F012C075F072C012
:100BB00001F073C002F074C003F075C004F0000EC1
:100BC000056E000E066E800E076E3F0E086EB4ECCA
:100BD00015F0D8B0EEEF05F0F0EF05F0F6EF05F008
:100BE00000017007D8A0710718EF06F072C001F07D
:100BF00073C002F074C003F075C004F0000E056EFF
:100C0000000E066E200E076E410E086EB4EC15F055
:100C1000D8A00DEF06F00FEF06F018EF06F0000178
:100C2000704B712B18EF06F018EF06F018EF06F076
:100C300000017BBF27EF06F07B5107E10D0E7A5DC7
:100C4000D8B025EF06F027EF06F046EF06F076C0A5
:100C500035F077C036F078C037F079C038F07A5187
:100C6000C3EC10F028C039F029C03AF02AC03BF09C
:100C70002BC03CF07BEC09F035C076F036C077F045
:100C800037C078F038C079F046EF06F0000171BF48
:100C900055EF06F0715107E10A0E705DD8B053EFC1
:100CA00006F055EF06F086EF06F0765177117811D1
:100CB0007911D8B45EEF06F060EF06F0FBEF06F0B6
:100CC00076C031F077C032F078C033F079C034F0BC
:100CD00068EC16F03150321033103410D8A473EF92
:100CE00006F075EF06F0FBEF06F0000171BF82EF32
:100CF00006F0715109E1020E705DD8A082EF06F096
:100D000084EF06F0FBEF06F086EF06F072C001F00C
:100D100073C002F074C003F075C004F05F0E056E7E
:100D2000700E066E890E076E400E086EB4EC15F05C
:100D3000D8B09DEF06F09FEF06F0A6EF06F0000199
:100D4000F70E7027FF0E7123ADEF06F00001F80ECD
:100D50007027FF0E7123ADEF06F070513EEC0CF0E2
:100D600028C072F029C073F02AC074F02BC075F04F
:100D700076C001F077C002F078C003F079C004F0CB
:100D800072C005F073C006F074C007F075C008F0BB
:100D9000DEEC14F001C06CF002C06DF003C06EF028
:100DA00004C06FF0F0EF06F076C001F077C002F0FB
:100DB00078C003F079C004F072C005F073C006F08B
:100DC00074C007F075C008F007EC14F001C06CF0B7
:100DD00002C06DF003C06EF004C06FF0F0EF06F0DB
:100DE000000E0001766F000E776F000E786F000E18
:100DF000796F39EF07F076C031F077C032F078C004
:100E000033F079C034F068EC16F031C06CF032C0C9
:100E10006DF033C06EF034C06FF076C049F077C02B
:100E20004AF078C04BF079C04CF06CC001F06DC056
:100E300002F06EC003F06FC004F0000E14EC13F06B
:100E400001C04DF002C04EF003C04FF004C050F09E
:100E500087EC1AF049C076F04AC077F04BC078F0C2
:100E60004CC079F0000E0001716F000E706F39EF09
:100E700007F0010E7C6F0A0E7C19D8A442EF07F030
:100E800044EF07F048EF07F073EF07F073EF07F058
:100E90007C51040D690EF324F66E080EF420F76EF3
:100EA0000900F5506C5D0900F5506D590900F550C9
:100EB0006E590900F5506F59D8B061EF07F063EF34
:100EC00007F067EF07F073EF07F073EF07F07C2B85
:100ED0000A0E7C19D8A46FEF07F071EF07F048EF06
:100EE00007F073EF07F0030E6A15576E000E6B15CF
:100EF000586E57505810D8B480EF07F082EF07F0C3
:100F0000DAEF07F051C0D9FF52C0DAFF2D0EDF6EC5
:100F1000514A522ADAEF07F0DAEF07F06CC001F01D
:100F20006DC002F06EC003F06FC004F07C51040D80
:100F3000690EF324F66E080EF420F76E0900F5CF63
:100F400005F00900F5CF06F00900F5CF07F00A001B
:100F5000F5CF08F096EC18F001C072F002C073F003
:100F600003C074F004C075F072C001F073C002F0E9
:100F700074C003F075C004F00A0E056E000E066E14
:100F8000000E076E000E086EF2EC18F001C072F051
:100F900002C073F003C074F004C075F00001725118
:100FA000300F51C0D9FF52C0DAFFDF6E514A522ACA
:100FB000DAEF07F07C077C29D8A4E1EF07F0E3EF34
:100FC00007F08EEF07F0F4EF07F0F4EF07F051C0F1
:100FD000D9FF52C0DAFF300EDF6E514A522A700735
:100FE000D8A07107F4EF07F071BF01EF08F071515D
:100FF00006E17005D8B0FFEF07F001EF08F0E7EF6A
:1010000007F003EF08F07BBF0FEF08F07B5109E119
:10101000090E7A5DD8A00FEF08F011EF08F015EF78
:1010200008F0080E7C6F19EF08F07AC07CF019EF19
:1010300008F07C517A5F000E7CBFFF0E7B5B7C5119
:10104000D8B425EF08F027EF08F031EF08F051C0D1
:10105000D9FF52C0DAFF2E0EDF6E514A522A31EF0D
:1010600008F07C513EEC0CF028C060F029C061F023
:101070002AC062F02BC063F076C013F077C014F082
:1010800078C015F079C016F060C00FF061C010F0A4
:1010900062C011F063C012F08CEC0EF00FC031F0A2
:1010A00010C032F011C033F012C034F068EC16F00A
:1010B00031C06CF032C06DF033C06EF034C06FF0F0
:1010C000D5EF08F06CC001F06DC002F06EC003F007
:1010D0006FC004F000017C51040D690EF324F66E1C
:1010E000080EF420F76E0900F5CF05F00900F5CFE2
:1010F00006F00900F5CF07F00A00F5CF08F096ECEE
:1011000018F001C072F002C073F003C074F004C0A4
:1011100075F072C001F073C002F074C003F075C0C6
:1011200004F00A0E056E000E066E000E076E000E2D
:10113000086EF2EC18F001C072F002C073F003C048
:1011400074F004C075F000017251300F51C0D9FF26
:1011500052C0DAFFDF6E514A522A6CC001F06DC0F6
:1011600002F06EC003F06FC004F07C51040D690EF4
:10117000F324F66E080EF420F76E0900F5CF05F0A3
:101180000900F5CF06F00900F5CF07F00A00F5CF0A
:1011900008F0F2EC18F001C06CF002C06DF003C072
:1011A0006EF004C06FF0D5EF08F000017C077C29D9
:1011B000D8A4DDEF08F0DFEF08F062EF08F0F0EF01
:1011C00008F0F0EF08F051C0D9FF52C0DAFF300E3E
:1011D000DF6E514A522A7A07D8A07B07F0EF08F059
:1011E0007A517B11D8A4F7EF08F0F9EF08F0E3EF9C
:1011F00008F05DEF09F05DEF09F07A517B11D8A49A
:1012000004EF09F006EF09F015EF09F06C516D11CC
:101210006E116F11D8A40FEF09F011EF09F015EF5F
:1012200009F07A4B7B2B15EF09F0800E7CBF7F0E07
:10123000576E7A517C5D7B51800A5758D8B023EFA6
:1012400009F025EF09F029EF09F07AC07CF042EFB0
:1012500009F07B51800A576E7C517A5D800E7CBF0D
:101260007F0E5758D8B037EF09F039EF09F042EF49
:1012700009F07C517A6F7B6B7ABF7B0742EF09F0F4
:1012800042EF09F0030E6A15576E000E6B15586E8B
:1012900057505810D8B44FEF09F051EF09F05DEFF7
:1012A00009F051C0D9FF52C0DAFF2D0EDF6E514A4E
:1012B000522A5DEF09F05DEF09F053C0F6FF54C00C
:1012C000F7FF534A542A0800F5CF7CF07C51D8A48C
:1012D0006CEF09F06EEF09F05FEF04F072EF09F0C8
:1012E00072EF09F051C0D9FF52C0DAFF000EDF6E75
:1012F0007AEF09F012003850800B456E38503824D0
:10130000476E37AE86EF09F088EF09F08BEF09F0F2
:1013100047808BEF09F04750D8B491EF09F093EF75
:1013200009F0AAEF09F04728D8A499EF09F09BEF3C
:1013300009F0A5EF09F0000E356E000E366E000EB6
:10134000376E000E386EA5EF09F0378E000E386E3E
:10135000B4EF09F0000E356E000E366E000E376EDB
:10136000000E386EB4EF09F03C50800B466E4550CD
:101370004618D8B4BEEF09F0C0EF09F0C3EF09F08A
:10138000458CC3EF09F03C503C24466E3BAECBEF9E
:1013900009F0CDEF09F0D0EF09F04680D0EF09F069
:1013A0004650D8B4D6EF09F0D8EF09F0EFEF09F0C6
:1013B0004628D8A4DEEF09F0E0EF09F0EAEF09F0E3
:1013C000000E396E000E3A6E000E3B6E000E3C6E43
:1013D000EAEF09F03B8E000E3C6EF9EF09F0000ECB
:1013E000396E000E3A6E000E3B6E000E3C6EF9EF49
:1013F00009F04750465CD8B000EF0AF002EF0AF05F
:101400002DEF0AF045AC07EF0AF009EF0AF00DEFF7
:101410000AF0800E451A0DEF0AF047C048F046C0AA
:1014200047F048C046F035C048F039C035F048C0F4
:1014300039F036C048F03AC036F048C03AF037C00C
:1014400048F03BC037F048C03BF038C048F03CC0E3
:1014500038F048C03CF02DEF0AF0000E486E4750BF
:101460003D6E3E6A3D1E3E1E3D4A3E2A46503F6E40
:10147000406A3D503F263E50402240BE49EF0AF0B0
:10148000405009E11A0E3F5CD8A049EF0AF04BEF3B
:101490000AF088EF0AF03550361037103810D8A40B
:1014A00054EF0AF057EF0AF0010E58EF0AF0000E61
:1014B000486E000E356E000E366E000E376E000E52
:1014C000386E46C047F093EF0AF088EF0AF048A064
:1014D0006CEF0AF06EEF0AF074EF0AF0D890483023
:1014E0000109486E78EF0AF0D890483278EF0AF098
:1014F00035A07DEF0AF07FEF0AF082EF0AF0488E08
:1015000082EF0AF038343832373236323532472AF1
:101510004650475CD8A08FEF0AF091EF0AF067EFD2
:101520000AF093EF0AF045BC98EF0AF09AEF0AF040
:10153000E3EF0AF04750D8A4A0EF0AF0A2EF0AF0B8
:10154000AEEF0AF0000E356E000E366E000E376EEE
:10155000000E386E3DEF0CF03DEF0CF039503526A3
:101560003A5036223B5037223C50382238A0BBEF4D
:101570000AF0BDEF0AF093EF0BF048A0C2EF0AF0BB
:10158000C4EF0AF0CBEF0AF0D89048324850010976
:10159000486ECFEF0AF0D8904832CFEF0AF035A06E
:1015A000D4EF0AF0D6EF0AF0D9EF0AF0488ED9EF5F
:1015B0000AF038343832373236323532472A93EF30
:1015C0000BF093EF0BF03950355C3A5036583B50E6
:1015D00037583850800A3D6E3C50800A3D58D8B08C
:1015E000F4EF0AF0F6EF0AF034EF0BF035C03DF0FF
:1015F00036C03EF037C03FF038C040F03D1E3E1EC2
:101600003F1E401E3D2A000E3E223F2240223950FE
:101610003D24416E3A503E20426E3B503F20436E87
:101620003C504020446EFF0E4124356EFF0E422098
:10163000366EFF0E4320376EFF0E4420386E800E4C
:10164000451A486C4850D8A428EF0BF02AEF0BF04D
:101650003CEF0BF0010E3526000E362237223822E1
:101660003CEF0BF03CEF0BF03950355E3A50365AF8
:101670003B50375A3C50385A3550361037103810D6
:10168000D8A445EF0BF047EF0BF088EF0BF0485074
:10169000D8A44DEF0BF04FEF0BF088EF0BF0000EDE
:1016A000356E000E366E000E376E000E386E3DEF52
:1016B0000CF03DEF0CF088EF0BF0D8903536363655
:1016C0003736383648AE67EF0BF069EF0BF06CEF4A
:1016D0000BF035806CEF0BF048A071EF0BF073EF5F
:1016E0000BF077EF0BF0D88048367BEF0BF0D890FB
:1016F00048367BEF0BF04750D8B481EF0BF083EF07
:101700000BF088EF0BF0470688EF0BF088EF0BF03B
:1017100037AE8DEF0BF08FEF0BF05DEF0BF093EF2B
:101720000BF093EF0BF0000E466E48AE9AEF0BF005
:101730009CEF0BF0B8EF0BF048C03DF07F0E3D166C
:10174000D8B4A5EF0BF0A7EF0BF0ABEF0BF0010E49
:10175000466EB8EF0BF035A0B0EF0BF0B2EF0BF028
:10176000B8EF0BF0010E466EB8EF0BF0B8EF0BF0D0
:101770004650D8B4BEEF0BF0C0EF0BF0F1EF0BF01A
:10178000010E3526000E36223722382238A0CBEF44
:101790000BF0CDEF0BF0F1EF0BF035C03DF036C0A4
:1017A0003EF037C03FF038C040F0403440323F3266
:1017B0003E323D323DC035F03EC036F03FC037F0DE
:1017C00040C038F04728D8B4E8EF0BF0EAEF0BF050
:1017D000F1EF0BF0472AF1EF0BF0F1EF0BF0F1EF27
:1017E0000BF04728D8B4F7EF0BF0F9EF0BF003EF4D
:1017F0000CF04750D8A4FFEF0BF001EF0CF019EFFD
:101800000CF003EF0CF0000E356E000E366E000E7D
:10181000376E000E386E4750D8A411EF0CF013EF5E
:101820000CF019EF0CF0000E456E19EF0CF019EFEB
:101830000CF047A01EEF0CF020EF0CF023EF0CF0A3
:10184000378E26EF0CF0379E26EF0CF0D8904730FD
:10185000386E45AE2EEF0CF030EF0CF033EF0CF09D
:10186000388E33EF0CF035C035F036C036F037C067
:1018700037F038C038F03DEF0CF01200306E30BE5B
:1018800046EF0CF044EF0CF06AEF0DF0306C305086
:10189000800A120FD8A04FEF0CF051EF0CF0EEEFD2
:1018A0000CF0000E0A6E0A0E096E000E046E640E35
:1018B000036E3050016E026A01BE02062AEC18F077
:1018C00001C007F002C008F0B4EC17F0D89007365A
:1018D0000836D89007360836240E0726000E082250
:1018E000350E0724F66E080E0820F76E0900F5CFB6
:1018F00013F00900F5CF14F00900F5CF15F00A0038
:10190000F5CF16F0000E0A6E640E096E3050076EA9
:10191000086A07BE0806B4EC17F0D89007360836F8
:10192000D89007360836480E0726000E0822350ED6
:101930000724F66E080E0820F76E0900F5CF0FF0A9
:101940000900F5CF10F00900F5CF11F00A00F5CF2E
:1019500012F08CEC0EF00FC02CF010C02DF011C066
:101960002EF012C02FF02CC00FF02DC010F02EC0A2
:1019700011F02FC012F0000E046E0A0E036E3050EC
:10198000016E026A01BE02062AEC18F0D8900136F8
:101990000236D89001360236350E0124F66E080E56
:1019A0000220F76E0900F5CF13F00900F5CF14F00F
:1019B0000900F5CF15F00A00F5CF16F08CEC0EF00B
:1019C0000FC028F010C029F011C02AF012C02BF06F
:1019D0008BEF0EF08BEF0EF052EF0DF03050800ACF
:1019E000750FD8A0F6EF0CF0F8EF0CF052EF0DF0F9
:1019F000000E0A6E0A0E096E3050076E086A07BEA6
:101A00000806B4EC17F0D89007360836D890073699
:101A10000836240E0726000E0822350E0724F66E1F
:101A2000080E0820F76E0900F5CF0FF00900F5CF7A
:101A300010F00900F5CF11F00A00F5CF12F0000EFA
:101A4000046E0A0E036E3050016E026A01BE020679
:101A50002AEC18F0D89001360236D89001360236BA
:101A6000350E0124F66E080E0220F76E0900F5CF40
:101A700013F00900F5CF14F00900F5CF15F00A00B6
:101A8000F5CF16F08CEC0EF00FC028F010C029F046
:101A900011C02AF012C02BF08BEF0EF08BEF0EF07E
:101AA00052EF0DF03050040D350EF324F66E080E93
:101AB000F420F76E0900F5CF28F00900F5CF29F0E2
:101AC0000900F5CF2AF00A00F5CF2BF08BEF0EF0CE
:101AD0008BEF0EF03050800A120FD8A072EF0DF08D
:101AE00074EF0DF011EF0EF0000E0A6E0A0E096E83
:101AF000000E046E640E036E3050016E026A01BE69
:101B000002062AEC18F001C007F002C008F0B4EC9D
:101B100017F0D89007360836D89007360836240EC6
:101B20000726000E0822010E0724F66E080E082074
:101B3000F76E0900F5CF13F00900F5CF14F0090096
:101B4000F5CF15F00A00F5CF16F0000E0A6E640E00
:101B5000096E3050076E086A07BE0806B4EC17F02D
:101B6000D89007360836D89007360836480E07262C
:101B7000000E0822010E0724F66E080E0820F76EEC
:101B80000900F5CF0FF00900F5CF10F00900F5CFEF
:101B900011F00A00F5CF12F08CEC0EF00FC02CF013
:101BA00010C02DF011C02EF012C02FF02CC00FF07D
:101BB0002DC010F02EC011F02FC012F0000E046ED8
:101BC0000A0E036E3050016E026A01BE02062AEC54
:101BD00018F0D89001360236D89001360236010E40
:101BE0000124F66E080E0220F76E0900F5CF13F0FF
:101BF0000900F5CF14F00900F5CF15F00A00F5CF74
:101C000016F08CEC0EF00FC028F010C029F011C0B7
:101C10002AF012C02BF08BEF0EF08BEF0EF075EF69
:101C20000EF03050800A750FD8A019EF0EF01BEFA0
:101C30000EF075EF0EF0000E0A6E0A0E096E3050AF
:101C4000076E086A07BE0806B4EC17F0D89007368E
:101C50000836D89007360836240E0726000E0822CC
:101C6000010E0724F66E080E0820F76E0900F5CF66
:101C70000FF00900F5CF10F00900F5CF11F00A00C0
:101C8000F5CF12F0000E046E0A0E036E3050016E96
:101C9000026A01BE02062AEC18F0D890013602361C
:101CA000D89001360236010E0124F66E080E02208D
:101CB000F76E0900F5CF13F00900F5CF14F0090015
:101CC000F5CF15F00A00F5CF16F08CEC0EF00FC032
:101CD00028F010C029F011C02AF012C02BF08BEFB1
:101CE0000EF08BEF0EF075EF0EF03050040D010E7C
:101CF000F324F66E080EF420F76E0900F5CF28F0F5
:101D00000900F5CF29F00900F5CF2AF00A00F5CF38
:101D10002BF08BEF0EF012001250800B1B6E125046
:101D20001224216E11AE97EF0EF099EF0EF09CEF9A
:101D30000EF021809CEF0EF02150D8B4A2EF0EF0EF
:101D4000A4EF0EF0B9EF0EF02128D8A4AAEF0EF000
:101D5000ACEF0EF0B6EF0EF0000E0F6E000E106E30
:101D6000000E116E000E126EB6EF0EF0118EC3EF64
:101D70000EF0000E0F6E000E106E000E116E000EB3
:101D8000126EC3EF0EF01650800B1B1A165016245D
:101D9000206E15AECEEF0EF0D0EF0EF0D3EF0EF0BA
:101DA0002080D3EF0EF02050D8B4D9EF0EF0DBEF47
:101DB0000EF0F0EF0EF02028D8A4E1EF0EF0E3EFE4
:101DC0000EF0EDEF0EF0000E136E000E146E000E0E
:101DD000156E000E166EEDEF0EF0158EF8EF0EF08C
:101DE000000E136E000E146E000E156E000E166EB1
:101DF0002050D8B4FEEF0EF000EF0FF00AEF0FF016
:101E00002150D8A406EF0FF008EF0FF016EF0FF0F7
:101E10000AEF0FF0000E0F6E000E106E000E116E26
:101E2000000E126EC2EF10F0C2EF10F015500F024C
:101E3000F3CF26F0F4CF27F026501C6E1D6A1E6AE1
:101E40001F6A2750226E236A246A256A14501002E2
:101E5000F3CF26F0F4CF27F026501C26000E1D22CB
:101E60001E221F2227502226000E23222422252252
:101E700013501102F3CF26F0F4CF27F026501C2682
:101E8000000E1D221E221F2227502226000E232272
:101E9000242225221EC01FF01DC01EF01CC01DF0F4
:101EA0001C6A13501002F3CF26F0F4CF27F026500F
:101EB0001C2627501D22000E1E22000E1F22145029
:101EC0000F02F3CF26F0F4CF27F026501C26275020
:101ED0001D22000E1E22000E1F221EC01FF01DC05C
:101EE0001EF01CC01DF01C6A13500F02F3CF26F029
:101EF000F4CF27F026501C2627501D22000E1E224C
:101F0000000E1F2215501002F3CF26F0F4CF27F059
:101F10002650222627502322000E2422000E25229E
:101F200014501102F3CF26F0F4CF27F026502226CA
:101F300027502322000E2422000E252215501102C4
:101F4000F3CF26F0F4CF27F02650176E2750186EE7
:101F5000196A1A6A19C01AF018C019F017C018F0D7
:101F6000176A1750222618502322195024221A507B
:101F700025221CC017F01DC018F01EC019F01FC08C
:101F80001AF0190EC9EF0FF0D8901A321932183220
:101F90001732E82EC4EF0FF01750222618502322D4
:101FA000195024221A5025221EC01FF01DC01EF0F9
:101FB0001CC01DF01C6A205021C017F0186A17269B
:101FC000000E1822820E1724266EFF0E1820276E90
:101FD00001EF10F0D89022362336243625361FAE76
:101FE000F4EF0FF0F6EF0FF0F7EF0FF02280D8903C
:101FF0001C361D361E361F362606D8A0270601EFD2
:1020000010F024AE06EF10F008EF10F0EAEF0FF03A
:102010000AEF10F0000E206E1FAE11EF10F013EF5C
:1020200010F03BEF10F0FF0E1C14176EFF0E1D1486
:10203000186EFF0E1E14196E7F0E1F141A6E1750A5
:10204000181019101A10D8B428EF10F02AEF10F059
:102050002EEF10F0010E206E3BEF10F022A033EFB8
:1020600010F035EF10F03BEF10F0010E206E3BEF5B
:1020700010F03BEF10F02050D8B441EF10F043EFD8
:1020800010F06BEF10F0010E2226000E2322242206
:10209000252225A04EEF10F050EF10F06BEF10F05E
:1020A00022C017F023C018F024C019F025C01AF080
:1020B0001A341A3219321832173217C022F018C0E7
:1020C00023F019C024F01AC025F0264A272A6BEF06
:1020D00010F06BEF10F027BE76EF10F0275008E1FC
:1020E0002628D8A076EF10F078EF10F082EF10F0ED
:1020F000000E226E000E236E800E246E7F0E256E63
:10210000B6EF10F027BE8FEF10F0275006E126043F
:10211000D8B08DEF10F08FEF10F09BEF10F0000EA5
:10212000226E000E236E000E246E000E256E000E31
:102130001B6EB6EF10F026C021F0FF0E2216FF0E28
:1021400023167F0E2416000E251621A0AAEF10F0EC
:10215000ACEF10F0AFEF10F0248EAFEF10F0D8908E
:102160002130256EB6EF10F0B6EF10F01B5025129F
:1021700022C00FF023C010F024C011F025C012F0CF
:10218000C2EF10F01200346E6D0E3464CAEF10F01E
:10219000CCEF10F07DEF11F0000E0A6E0A0E096E02
:1021A000000E046E640E036E34C001F0026A2AEC65
:1021B00018F001C007F002C008F0B4EC17F0D89096
:1021C00007360836D89007360836240E0726000E44
:1021D0000822350E0724F66E080E0820F76E090057
:1021E000F5CF13F00900F5CF14F00900F5CF15F085
:1021F0000A00F5CF16F0000E0A6E640E096E34C0A8
:1022000007F0086AB4EC17F0D89007360836D89073
:1022100007360836480E0726000E0822350E07241A
:10222000F66E080E0820F76E0900F5CF0FF00900D2
:10223000F5CF10F00900F5CF11F00A00F5CF12F03C
:102240008CEC0EF00FC030F010C031F011C032F045
:1022500012C033F0000E046E0A0E036E34C001F09B
:10226000026A2AEC18F0D89001360236D89001366E
:102270000236350E0124F66E080E0220F76E0900B4
:10228000F5CF13F00900F5CF14F00900F5CF15F0E4
:102290000A00F5CF16F030C00FF031C010F032C098
:1022A00011F033C012F08CEC0EF00FC02CF010C007
:1022B0002DF011C02EF012C02FF02CC00FF02DC049
:1022C00010F02EC011F02FC012F0000E136E000E91
:1022D000146E000E156E3F0E166E8CEC0EF00FC0D5
:1022E00028F010C029F011C02AF012C02BF01DEF09
:1022F00012F01DEF12F0F5EF11F00A0E346483EFC7
:1023000011F085EF11F0F5EF11F0000E046E0A0EDA
:10231000036E34C001F0026A2AEC18F0D89001363E
:102320000236D89001360236350E0124F66E080EBC
:102330000220F76E0900F5CF13F00900F5CF14F075
:102340000900F5CF15F00A00F5CF16F0000E0A6E61
:102350000A0E096E34C007F0086AB4EC17F0D89082
:1023600007360836D89007360836240E0726000EA2
:102370000822350E0724F66E080E0820F76E0900B5
:10238000F5CF0FF00900F5CF10F00900F5CF11F0EF
:102390000A00F5CF12F08CEC0EF00FC030F010C038
:1023A00031F011C032F012C033F030C00FF031C044
:1023B00010F032C011F033C012F0000E136E000E98
:1023C000146E000E156E3F0E166E8CEC0EF00FC0E4
:1023D00028F010C029F011C02AF012C02BF01DEF18
:1023E00012F01DEF12F0F5EF11F03450040D350E20
:1023F000F324F66E080EF420F76E0900F5CF0FF007
:102400000900F5CF10F00900F5CF11F00A00F5CF63
:1024100012F0000E136E000E146E000E156E3F0EBD
:10242000166E8CEC0EF00FC028F010C029F011C011
:102430002AF012C02BF01DEF12F012009268000E6D
:10244000946EC2800D0EC16EA90EC06E280E11ECE6
:1024500017F0010EEFEC1AF0410E596EEE0EE82E59
:10246000FED7592EFCD700D036EF12F0000E36EC16
:102470001AF001C0B1F002C0B2F0010E36EC1AF051
:1024800001C0ADF002C0AEF0020E36EC1AF001C091
:10249000AFF002C0B0F0B1C001F0B2C002F0000E67
:1024A000046E640E036E4DEC1BF001C007F002C019
:1024B00008F0030E0A6E0968B4EC17F007C0B1F01B
:1024C00008C0B2F0AFC001F0B0C002F0000E046E60
:1024D0000E0E036E4DEC1BF001C007F002C008F0B9
:1024E000030E0A6E0968B4EC17F007C0AFF008C01D
:1024F000B0F0ADC001F0AEC002F0000E046E1E0ED2
:10250000036E4DEC1BF001C007F002C008F0030E93
:102510000A6E0968B4EC17F007C0ADF008C0AEF061
:102520007D0E516E000E526E910E536E080E546E5B
:10253000B1C055F0B2C056F058EC04F08D0E516E9B
:10254000000E526E9E0E536E080E546EAFC055F0C4
:10255000B0C056F058EC04F09D0E516E000E526E55
:10256000980E536E080E546EADC055F0AEC056F0C6
:1025700058EC04F0800EEFEC1AF0A30E026E080E79
:10258000036E40EC19F0C00EEFEC1AF07D0E026EF7
:10259000000E036E40EC19F0860EEFEC1AF0A70E59
:1025A000026E080E036E40EC19F0C60EEFEC1AF046
:1025B0009D0E026E000E036E40EC19F08C0EEFECD7
:1025C0001AF0AB0E026E080E036E40EC19F0CC0E42
:1025D000EFEC1AF08D0E026E000E036E40EC19F057
:1025E000B1C001F0B2C002F0DEEC19F0AFC001F0F2
:1025F000B0C002F083EC19F0ADC001F0AEC002F043
:10260000B1EC19F00D0E5A6EAF0E596EB60EE82EE3
:10261000FED7592EFCD75A2EFAD700D036EF12F03B
:1026200036EF12F000EF00F0096E0950D8B41BEF3E
:1026300013F01DEF13F03FEF13F004BE24EF13F07F
:1026400022EF13F03FEF13F001C005F002C006F0D7
:1026500003C007F004C008F0051E061E071E081E72
:10266000052A000E06220722082205C00BF006C02C
:102670000CF007C00DF008C00EF049EF13F001C0D8
:102680000BF002C00CF003C00DF004C00EF049EFD7
:1026900013F00150021003100410D8A452EF13F0ED
:1026A00054EF13F060EF13F0000E016E000E026E97
:1026B000000E036E000E046E06EF14F006EF14F029
:1026C000960E0A6E6CEF13F00A2AD8900E320D3275
:1026D0000C320B326CEF13F0000E0B14056E000E73
:1026E0000C14066E000E0D14076EFE0E0E14086E0E
:1026F0000550061007100810D8A481EF13F083EFDF
:1027000013F064EF13F093EF13F093EF13F00A2A32
:10271000010E0B26000E0C220D220E22D8900E3236
:102720000D320C320B32000E0B14056E000E0C1421
:10273000066E000E0D14076EFF0E0E14086E055087
:10274000061007100810D8A4A8EF13F0AAEF13F092
:1027500087EF13F0B6EF13F0B6EF13F00A06D89038
:102760000B360C360D360E36B6EF13F00DBEBBEF42
:1027700013F0BDEF13F0C7EF13F0020E0A60C3EFC2
:1027800013F0C5EF13F0AEEF13F0C7EF13F00AB07C
:10279000CCEF13F0CEEF13F0D6EF13F0FF0E0B16C5
:1027A000FF0E0C167F0E0D16FF0E0E16D8900A3275
:1027B0000AC005F0066A076A086A05C008F0076AD9
:1027C000066A056A05500B1206500C1207500D12CE
:1027D00008500E120950D8B4F0EF13F0F2EF13F0D6
:1027E000FCEF13F004BEF9EF13F0F7EF13F0FCEF7A
:1027F00013F00E8EFCEF13F00BC001F00CC002F0D2
:102800000DC003F00EC004F006EF14F0120003C078
:1028100009F00A6A0B6A0234093601E30A8009509A
:10282000116E1150D8A417EF14F019EF14F025EF22
:1028300014F0000E016E000E026E000E036E000E0C
:10284000046EDDEF14F0DDEF14F007C009F00A6A42
:102850000B6A0634093601E30A800950106E1050E5
:10286000D8A435EF14F037EF14F043EF14F0000E56
:10287000016E000E026E000E036E000E046EDDEFA0
:1028800014F0DDEF14F0028EFF0E0116FF0E02169B
:10289000000E0316068EFF0E0516FF0E0616000E1E
:1028A0000716000E0C6E000E0D6E000E0E6E000E62
:1028B0000F6E7F0E115E1050980F115E180E106E85
:1028C000D8900C360D360E360F360550015C06508A
:1028D000025807500358D8A070EF14F072EF14F0AC
:1028E00079EF14F00550015E0650025A0750035A62
:1028F0000C80D890013602360336102E60EF14F0AB
:1029000082EF14F011BE89EF14F087EF14F0ADEFF1
:1029100014F01150800A970FD8B091EF14F093EF94
:1029200014F0A1EF14F0000E016E000E026E000E06
:10293000036E000E046EDDEF14F0DDEF14F0A1EF76
:1029400014F0D8900F320E320D320C32113EA1EF3E
:1029500014F0D5EF14F0D5EF14F0170E1164B3EFA7
:1029600014F0B5EF14F0CBEF14F0000E016E000E72
:10297000026E000E036E000E046EDDEF14F0DDEF4C
:1029800014F0CBEF14F0D8900C360D360E360F360F
:102990001106CBEF14F01150D8A4D1EF14F0D3EFFF
:1029A00014F0C3EF14F0D5EF14F00CC001F00DC01B
:1029B00002F00EC003F00FC004F012000334043420
:1029C0000E6E0E50D8A4E7EF14F0E9EF14F0F5EF17
:1029D00014F0000E016E000E026E000E036E000E6B
:1029E000046EB3EF15F0B3EF15F0073408340D6E35
:1029F0000D50D8A4FEEF14F000EF15F00CEF15F019
:102A0000000E016E000E026E000E036E000E046ECC
:102A1000B3EF15F0B3EF15F0038EFF0E0116FF0EA6
:102A20000216FF0E0316000E0416078EFF0E051683
:102A3000FF0E0616FF0E0716000E0816000E096E92
:102A4000000E0A6E000E0B6E000E0C6E7F0E0E5EF8
:102A50000D50A00F0E5E200E0D6E2FEF15F0D890CA
:102A600009360A360B360C360550015C0650025802
:102A70000750035808500458D8A041EF15F043EF11
:102A800015F04EEF15F00550015E0650025A075042
:102A9000035A0850045A09804EEF15F0D8900136B9
:102AA0000236033604360D2E2FEF15F058EF15F0D1
:102AB0000EBE5FEF15F05DEF15F083EF15F00E50D1
:102AC000800A9F0FD8B067EF15F069EF15F077EF28
:102AD00015F0000E016E000E026E000E036E000E69
:102AE000046EB3EF15F0B3EF15F077EF15F0D89053
:102AF0000C320B320A3209320E3E77EF15F0ABEF93
:102B000015F0ABEF15F01F0E0E6489EF15F08BEF8B
:102B100015F0A1EF15F0000E016E000E026E000E12
:102B2000036E000E046EB3EF15F0B3EF15F0A1EFD6
:102B300015F0D89009360A360B360C360E06A1EF82
:102B400015F00E50D8A4A7EF15F0A9EF15F099EFE6
:102B500015F0ABEF15F009C001F00AC002F00BC090
:102B600003F00CC004F01200000E0114096E000EF8
:102B700002140A6E800E03140B6E7F0E04140C6E8A
:102B800009500A100B100C10D8A4C9EF15F0CBEFA8
:102B900015F0D5EF15F0000E016E000E026E000E5E
:102BA000036E000E046ED5EF15F0000E0514096ECD
:102BB000000E06140A6E800E07140B6E7F0E0814AA
:102BC0000C6E09500A100B100C10D8A4EAEF15F087
:102BD000ECEF15F0F6EF15F0000E056E000E066E28
:102BE000000E076E000E086EF6EF15F004AEFBEF58
:102BF00015F0FDEF15F01CEF16F001C009F002C052
:102C00000AF003C00BF004C00CF0091E0A1E0B1ED4
:102C10000C1E092A000E0A220B220C22000E092487
:102C2000016E000E0A20026E000E0B20036E800E55
:102C30000C20046E1CEF16F008AE21EF16F023EF07
:102C400016F040EF16F005C009F006C00AF007C004
:102C50000BF008C00CF0091E0A1E0B1E0C1E092AE0
:102C6000000E0A220B220C22000E0924056E000E13
:102C70000A20066E000E0B20076E800E0C20086ED8
:102C8000000E011A000E021A000E031A800E041A1A
:102C9000000E051A000E061A000E071A800E081AFA
:102CA0000550015C0650025807500358085004585C
:102CB000D8B05DEF16F05FEF16F062EF16F0D89027
:102CC00067EF16F0D88067EF16F067EF16F0120086
:102CD000333434343A6E3A50D8A471EF16F073EFAF
:102CE00016F07FEF16F0000E316E000E326E000E01
:102CF000336E000E346E10EF17F010EF17F031C086
:102D000035F032C036F033C037F034C038F0200E22
:102D10008FEF16F0D8903832373236323532E82E0F
:102D20008AEF16F03550396E338EFF0E3116FF0ED6
:102D30003216FF0E3316000E3416960E3A5E3ABE69
:102D4000A6EF16F0A4EF16F0CAEF16F03A50800A7C
:102D5000970FD8B0AEEF16F0B0EF16F0BEEF16F04A
:102D6000000E316E000E326E000E336E000E346EA9
:102D700010EF17F010EF17F0BEEF16F0D8903432C6
:102D80003332323231323A3EBEEF16F0F4EF16F003
:102D9000F4EF16F01F0E3A64D0EF16F0D2EF16F0F3
:102DA000E8EF16F0000E316E000E326E000E336E3C
:102DB000000E346E10EF17F010EF17F0E8EF16F07A
:102DC000D89031363236333634363A06E8EF16F0DC
:102DD0003A50D8A4EEEF16F0F0EF16F0E0EF16F050
:102DE000F4EF16F0F4EF16F03950D8B4FAEF16F00D
:102DF000FCEF16F006EF17F0341E331E321E316C56
:102E0000000E32223322342206EF17F031C031F0A7
:102E100032C032F033C033F034C034F010EF17F06A
:102E20001200026E0F0E83160F0E95169694969052
:102E300096928D948D908D926BEC1BF0300EEFEC92
:102E40001AF062EC1BF062EC1BF0300EEFEC1AF0A3
:102E500062EC1BF062EC1BF0320EEFEC1AF033EF79
:102E600017F033EF17F00BEC1AF00009D8A43BEF82
:102E700017F03DEF17F033EF17F043EF17F043EF84
:102E800017F043EF17F00BEC1AF00009D8A44BEF42
:102E900017F04DEF17F043EF17F04FEF17F0025018
:102EA000EFEC1AF056EF17F056EF17F00BEC1AF0A4
:102EB0000009D8A45EEF17F060EF17F056EF17F097
:102EC00062EF17F0080EEFEC1AF069EF17F069EFF8
:102ED00017F00BEC1AF00009D8A471EF17F073EF9C
:102EE00017F069EF17F075EF17F00F0EEFEC1AF00F
:102EF0007CEF17F07CEF17F00BEC1AF00009D8A468
:102F000084EF17F086EF17F07CEF17F088EF17F0DB
:102F1000010EEFEC1AF08FEF17F08FEF17F00BECBC
:102F20001AF00009D8A497EF17F099EF17F08FEF78
:102F300017F09BEF17F0040EEFEC1AF0A2EF17F06A
:102F4000A2EF17F00BEC1AF00009D8A4AAEF17F0C3
:102F5000ACEF17F0A2EF17F0AEEF17F0800EACEC6D
:102F60001AF0B3EF17F01200000E0C6E0ABEBDEFA0
:102F700017F0BBEF17F0C5EF17F0096C0A1ED8B0B9
:102F80000A2A010E0C6EC5EF17F008BECCEF17F041
:102F9000CAEF17F0D4EF17F0076C081ED8B0082A54
:102FA000010E0C1AD4EF17F0000E0E6E000E0D6E0F
:102FB00009500A10D8B4DFEF17F0E1EF17F015EF62
:102FC00018F0010E0B6EEBEF17F0D89009360A36A9
:102FD0000B2AEBEF17F00AAEF0EF17F0F2EF17F055
:102FE000E5EF17F0F6EF17F0F6EF17F0D8900D3683
:102FF0000E360950075C0A500858D8A002EF18F0A6
:1030000004EF18F00BEF18F00950075E0A50085A49
:103010000D800BEF18F0D8900A3209320B2EF6EF24
:1030200017F015EF18F015EF18F00C50D8B41BEF8F
:1030300018F01DEF18F023EF18F00D6C0E1ED8B02D
:103040000E2A23EF18F00DC007F00EC008F029EF8C
:1030500018F01200000E066E02BE33EF18F031EFCA
:1030600018F03BEF18F0016C021ED8B0022A010ED6
:10307000066E3BEF18F004BE42EF18F040EF18F078
:1030800048EF18F0036C041ED8B0042A48EF18F07B
:1030900003500410D8B44FEF18F051EF18F081EF3F
:1030A00018F0010E056E5BEF18F0D8900336043669
:1030B000052A5BEF18F004AE60EF18F062EF18F02D
:1030C00055EF18F066EF18F066EF18F00350015C4A
:1030D00004500258D8A06FEF18F071EF18F077EF96
:1030E00018F00350015E0450025A77EF18F0D890A0
:1030F00004320332052E66EF18F081EF18F081EFED
:1031000018F00650D8B487EF18F089EF18F08FEF59
:1031100018F0016C021ED8B0022A8FEF18F001C01F
:1031200001F002C002F095EF18F01200000E096ED7
:10313000000E0A6E000E0B6E000E0C6E055006108F
:1031400007100810D8B4A7EF18F0A9EF18F0E9EFAE
:1031500018F0010E0D6EB5EF18F0D8900536063652
:10316000073608360D2AB5EF18F008AEBAEF18F09A
:10317000BCEF18F0ADEF18F0C0EF18F0C0EF18F08A
:10318000D89009360A360B360C360550015C0650CD
:1031900002580750035808500458D8A0D2EF18F02E
:1031A000D4EF18F0DFEF18F00550015E0650025A18
:1031B0000750035A0850045A0980DFEF18F0D890DE
:1031C00008320732063205320D2EC0EF18F0E9EF53
:1031D00018F009C001F00AC002F00BC003F00CC0E7
:1031E00004F012000550061007100810D8B4FBEFC9
:1031F00018F0FDEF18F037EF19F0010E096E09EF26
:1032000019F0D8900536063607360836092A09EF30
:1032100019F008AE0EEF19F010EF19F001EF19F0E8
:1032200014EF19F014EF19F00550015C0650025824
:103230000750035808500458D8A021EF19F023EF85
:1032400019F02DEF19F00550015E0650025A075093
:10325000035A0850045A2DEF19F0D890083207325B
:1032600006320532092E14EF19F037EF19F001C0BC
:1032700001F002C002F003C003F004C004F0120029
:1032800068EF19F046EF19F046EF19F00BEC1AF061
:103290000009D8A44EEF19F050EF19F046EF19F0DD
:1032A00052EF19F002C0F6FF03C0F7FFF86A070EED
:1032B000F76403D00800F55005D0F6CFE1FFF7CF53
:1032C000E2FFE750CEEC1AF0024A032A68EF19F049
:1032D00002C0F6FF03C0F7FFF86A070EF76403D0D9
:1032E0000800F55005D0F6CFE1FFF7CFE2FFE75039
:1032F0000009D8A47EEF19F080EF19F046EF19F01D
:1033000082EF19F012000001B351015C0250800AF3
:10331000036EB451800A0358D8B091EF19F093EFBF
:1033200019F0ADEF19F09AEF19F09AEF19F08282C7
:103330009AEF19F0B351015C0250800A036EB45148
:10334000800A0358D8A0A7EF19F0A9EF19F097EF5A
:1033500019F0B0EF19F0B0EF19F08292B0EF19F058
:1033600012005B50015C0250800A036E5C50800AC0
:103370000358D8B0BEEF19F0C0EF19F0DAEF19F02A
:10338000C7EF19F0C7EF19F08284C7EF19F05B504F
:10339000015C0250800A036E5C50800A0358D8A07A
:1033A000D4EF19F0D6EF19F0C4EF19F0DDEF19F0F2
:1033B000DDEF19F08294DDEF19F012005D50015C31
:1033C0000250800A036E5E50800A0358D8B0EBEFBB
:1033D00019F0EDEF19F007EF1AF0F4EF19F0F4EF30
:1033E00019F08280F4EF19F05D50015C0250800A00
:1033F000036E5E50800A0358D8A001EF1AF003EF65
:103400001AF0F1EF19F00AEF1AF00AEF1AF08290B1
:103410000AEF1AF012008D848D9073EC1BF08D82F0
:1034200073EC1BF083AE17EF1AF019EF1AF028EFC8
:103430001AF08D9273EC1BF08D8273EC1BF08D9261
:103440008D94010E35EF1AF035EF1AF035EF1AF0C2
:103450008D9273EC1BF08D8273EC1BF08D928D942A
:10346000000E35EF1AF035EF1AF01200056E05C0A8
:1034700003F003460346C2500318C30B0318C26E81
:103480000D0E036EFC0EE82EFED7032EFCD7C28273
:103490004AEF1AF0C2B24FEF1AF051EF1AF04AEFAA
:1034A0001AF053EF1AF0C450046E036AC350032499
:1034B000016E000E0420026E5EEF1AF01200F40E90
:1034C000F66E360EF76E000EF86E0900F5CFB3F00B
:1034D0000900F5CFB4F0F00EF66E360EF76E000E62
:1034E000F86E00EE5BF010EE04F00900F5CFEEFF91
:1034F000E550E150FAE10001B26BB16BB06BAF6B1C
:10350000AE6BAD6B000EF86E00011EEF12F0000EF8
:103510004D1A000E4E1A000E4F1A800E501A49C056
:1035200035F04AC036F04BC037F04CC038F04DC0D3
:1035300039F04EC03AF04FC03BF050C03CF07BEC4D
:1035400009F035C049F036C04AF037C04BF038C0FA
:103550004CF0ABEF1AF01200016E0F0E95160F0E25
:10356000831601508009F00B83128D948D9073ECBB
:103570001BF08D8273EC1BF08D920F0E83160138B9
:10358000F00BF00B831273EC1BF08D8273EC1BF0CD
:103590008D92F00E9512CDEF1AF01200016E0F0E03
:1035A00095160F0E83160150F00B83128D808D94AB
:1035B00073EC1BF08D8273EC1BF08D920F0E831653
:1035C0000138F00BF00B831273EC1BF08D8273EC5F
:1035D0001BF08D92F00E9512EEEF1AF01200016EB4
:1035E0000F0E95160F0E83160150F00B83128D945B
:1035F0008D9073EC1BF08D8273EC1BF08D920F0E8F
:1036000083160138F00BF00B831273EC1BF08D82E4
:1036100073EC1BF08D92F00E95120FEF1BF0120061
:103620000150021003100410D8B419EF1BF01BEF67
:103630001BF025EF1BF0000E011A000E021A000EFF
:10364000031A800E041A25EF1BF001C001F002C01E
:1036500002F003C003F004C004F02FEF1BF01200CF
:10366000036E000E026E3A0E036039EF1BF03BEF63
:103670001BF047EF1BF02F0E036441EF1BF043EFED
:103680001BF047EF1BF0010E026E47EF1BF002C06C
:1036900001F001304CEF1BF0120001500302F3CF98
:1036A00005F0F4CF06F001500402F3500626025054
:1036B0000302F350062605C001F006C002F061EFD8
:1036C0001BF01200210E016E760EE82EFED7012EA1
:1036D000FCD700D01200620E016E660EE82EFED7F7
:1036E000012EFCD71200210EE82EFED700F01200AA
:0636F0001E00320007007D
:020000040020DA
:08000000FFFFFFFFFFFFFFFF00
:020000040030CA
:0E000000000C1F1EFF8181FF0FC00FE00F409C
:00000001FF
