:04000000A0EF09F074
:1008000000412D555220422D506820432D54630045
:10081000417475616C697A61646F004361727265DD
:1008200067616E646F0056616C6F723A0055523AA0
:100830000054633A0050683A0025640025004300E4
:0108400000B7
:100842009268000E946EC2800D0EC16EA90EC06E2B
:10085200F00E936E280E76EC07F0010E42EC0AF0D1
:10086200410E2F6EEE0EE82EFED72F2EFCD700D0B3
:10087200010E42EC0AF0000E026E030E016EC2EC93
:1008820009F001C094F002C095F0000E026E010E54
:10089200016EC2EC09F001C090F002C091F0000EAE
:1008A200026E020E016EC2EC09F001C092F002C0AB
:1008B20093F094C001F095C002F0000E046E640E35
:1008C200036ED1EC0AF001C007F002C008F0030E7B
:1008D2000A6E0968EDEC07F007C094F008C095F0C5
:1008E20092C001F093C002F0000E046E0E0E036E71
:1008F200D1EC0AF001C007F002C008F0030E0A6E44
:100902000968EDEC07F007C092F008C093F090C0C0
:1009120001F091C002F0000E046E1E0E036ED1ECC7
:100922000AF001C007F002C008F0030E0A6E09685F
:10093200EDEC07F007C090F008C091F00D0E2F6E9D
:10094200FC0EE82EFED72F2EFCD7600E1E6E390E3F
:100952001F6E94C020F095C021F061EC0AF0700E79
:100962001E6E390E1F6E92C020F093C021F061EC12
:100972000AF0800E1E6E390E1F6E90C020F091C0DC
:1009820021F061EC0AF0800E42EC0AF02D0E026EAC
:100992000250D8A4080E036E44EC09F0C00E42ECDB
:1009A2000AF0600E026E036A44EC09F0C30E42ECD8
:1009B2000AF03C0E026E0250D8A4080E036E44ECFC
:1009C20009F0860E42EC0AF0310E026E0250D8A4F3
:1009D200080E036E44EC09F0C60E42EC0AF0800EDB
:1009E200026E036A44EC09F0C80E42EC0AF03E0EB5
:1009F200026E0250D8A4080E036E44EC09F08C0E6D
:100A020042EC0AF0350E026E0250D8A4080E036EB4
:100A120044EC09F0CC0E42EC0AF0700E026E036A4E
:100A220044EC09F0CF0E42EC0AF094C001F095C0FC
:100A320002F0BDEC0AF092C001F093C002F0A9EC02
:100A42000AF090C001F091C002F095EC0AF0CCECF3
:100A520006F02A0AD8A430EF05F032EF05F034EFA1
:100A620005F020EC06F00D0E306EAF0E2F6EB60EB6
:100A7200E82EFED72F2EFCD7302EFAD700D039EF32
:100A820004F000EF00F01050D96EDA6ADFCFF6FF03
:100A9200080EF76E0800F550250AD8A453EF05F0AA
:100AA20055EF05F00EEF06F01050D96EDA6ADF2A24
:100AB200000E526E000E516E51C055F053685468CC
:100AC2001050D96EDA6ADF50146E14C0F6FF080EA9
:100AD200F76E0800F550640AD8B472EF05F074EFAF
:100AE20005F082EF05F014C0F6FF080EF76E08005D
:100AF200F550690AD8A480EF05F082EF05F008EFFF
:100B020006F01150D96EDA6A020EDF26DF5CD96E6A
:100B1200DA6ADECF15F0DECF16F01050D96EDA6A3F
:100B22001428DF6E200E196E16BE9AEF05F09DEFA7
:100B320005F0010E9EEF05F0000E136E1906195016
:100B4200310FD96EDA6A15C001F016C002F0000E3C
:100B5200046E0A0E036E4FEC08F001C007F002C0EB
:100B620008F07BEC0AF00750300FDF6E15C007F07B
:100B720016C008F0000E0A6E0A0E096EEDEC07F0C0
:100B820007C015F008C016F015501610D8B4CCEFF7
:100B920005F0CEEF05F0D6EF05F01950D8A4D4EF4A
:100BA20005F0D6EF05F09FEF05F01950D8B4DCEF51
:100BB20005F0DEEF05F0FDEF05F01350D8B4E4EFD9
:100BC20005F0E6EF05F0FDEF05F019061950310FBB
:100BD200D96EDA6A2D0EDF6EFDEF05F01950310F76
:100BE200D96EDA6ADF50126E1250016E026A0FC0BD
:100BF20003F0A7EC08F0192A200E1918D8A404EF64
:100C020006F006EF06F0EFEF05F01FEF06F01050CA
:100C1200D96EDA6ADF2A1FEF06F01050D96EDA6A4F
:100C2200DFCFF6FF080EF76E0800F550016E026A7C
:100C32000FC003F0A7EC08F008EF06F01200010E57
:100C420042EC0AF0800E42EC0AF01B0E026E0250D9
:100C5200D8A4080E036E44EC09F01A0E0F6E5E0E55
:100C62000E6E6E0EE82EFED70E2EFCD70F2EFAD782
:100C720000D0010E42EC0AF0800E42EC0AF0010EA6
:100C8200026E0250D8A4080E036E44EC09F0CCECBC
:100C920006F0126E410E1218D8B452EF06F054EF5D
:100CA20006F066EF06F0420E1218D8B45BEF06F0BB
:100CB2005DEF06F066EF06F0430E1218D8A464EF5B
:100CC20006F066EF06F0B3EF06F0C00E42EC0AF053
:100CD200260E026E0250D8A4080E036E44EC09F0F0
:100CE200FCEC08F007C010F008C011F0410E121819
:100CF200D8A47EEF06F080EF06F084EF06F010C075
:100D02005AF011C05BF0420E1218D8A48BEF06F015
:100D12008DEF06F091EF06F010C056F011C057F0BB
:100D2200430E1218D8A498EF06F09AEF06F09EEF41
:100D320006F010C058F011C059F0100E026E0250A9
:100D4200D8A4080E036E44EC09F0330E0F6EBB0EEE
:100D52000E6EE00EE82EFED70E2EFCD70F2EFAD71F
:100D6200CBEF06F02A0E1218D8A4BAEF06F0BCEFA9
:100D720006F0BEEF06F0CBEF06F0030E0F6E8A0E02
:100D82000E6E560EE82EFED70E2EFCD70F2EFAD779
:100D92003DEF06F01200F70E816E81B8D3EF06F038
:100DA200D5EF06F0D8EF06F0310E75EF07F081BAF5
:100DB200DDEF06F0DFEF06F0E2EF06F0340E75EF3E
:100DC20007F081BCE7EF06F0E9EF06F0ECEF06F082
:100DD200370E75EF07F081BEF1EF06F0F3EF06F084
:100DE200F6EF06F02A0E75EF07F0FB0E816E81B862
:100DF200FDEF06F0FFEF06F002EF07F0320E75EF9F
:100E020007F081BA07EF07F009EF07F00CEF07F0E0
:100E1200350E75EF07F081BC11EF07F013EF07F005
:100E220016EF07F0380E75EF07F081BE1BEF07F0E3
:100E32001DEF07F020EF07F0300E75EF07F0FD0E03
:100E4200816E81B827EF07F029EF07F02CEF07F04A
:100E5200330E75EF07F081BA31EF07F033EF07F089
:100E620036EF07F0360E75EF07F081BC3BEF07F067
:100E72003DEF07F040EF07F0390E75EF07F081BE46
:100E820045EF07F047EF07F04AEF07F0230E75EF43
:100E920007F0FE0E816E81B851EF07F053EF07F0B5
:100EA20056EF07F0410E75EF07F081BA5BEF07F0DE
:100EB2005DEF07F060EF07F0420E75EF07F081BCBF
:100EC20065EF07F067EF07F06AEF07F0430E75EF83
:100ED20007F081BE6FEF07F071EF07F074EF07F0D4
:100EE200440E75EF07F0000E1200026E0F0E83160D
:100EF2000F0E95169694969096928D948D908D9253
:100F0200EDEC0AF0300E42EC0AF0E4EC0AF0E4EC0C
:100F12000AF0300E42EC0AF0E4EC0AF0E4EC0AF0DB
:100F2200320E42EC0AF07DEC09F00009D8A49CEFE5
:100F320007F09EEF07F094EF07F07DEC09F000094F
:100F4200D8A4A6EF07F0A8EF07F09EEF07F0025033
:100F520042EC0AF07DEC09F00009D8A4B3EF07F0E7
:100F6200B5EF07F0ABEF07F0080E42EC0AF07DECAC
:100F720009F00009D8A4C0EF07F0C2EF07F0B8EFFC
:100F820007F00F0E42EC0AF07DEC09F00009D8A43C
:100F9200CDEF07F0CFEF07F0C5EF07F0010E42ECFF
:100FA2000AF07DEC09F00009D8A4DAEF07F0DCEFD3
:100FB20007F0D2EF07F0040E42EC0AF07DEC09F0E4
:100FC2000009D8A4E7EF07F0E9EF07F0DFEF07F039
:100FD200800EE4EC09F01200000E0C6E0ABEF6EF71
:100FE20007F0F4EF07F0FCEF07F0096C0A1ED8B027
:100FF2000A2A010E0C6E08BE03EF08F001EF08F09A
:1010020009EF08F0076C081ED8B0082A010E0C1A66
:10101200000E0E6E000E0D6E09500A10D8B414EFB9
:1010220008F016EF08F03EEF08F0010E0B6E1EEF0F
:1010320008F0D89009360A360B2A0AAE23EF08F0D8
:1010420025EF08F01AEF08F0D8900D360E36095049
:10105200075C0A500858D8A031EF08F033EF08F0C7
:1010620038EF08F00950075E0A50085A0D80D890F0
:101072000A3209320B2E25EF08F00C50D8B444EF97
:1010820008F046EF08F04AEF08F00D6C0E1ED8B0DB
:101092000E2A0DC007F00EC008F01200000E066EF8
:1010A20002BE58EF08F056EF08F05EEF08F0016C50
:1010B200021ED8B0022A010E066E04BE65EF08F0C9
:1010C20063EF08F069EF08F0036C041ED8B0042A3D
:1010D20003500410D8B470EF08F072EF08F096EFE6
:1010E20008F0010E056E7AEF08F0D8900336043648
:1010F200052A04AE7FEF08F081EF08F076EF08F0E2
:101102000350015C04500258D8A08AEF08F08CEF1B
:1011120008F090EF08F00350015E0450025AD89094
:1011220004320332052E81EF08F00650D8B49CEF4A
:1011320008F09EEF08F0A2EF08F0016C021ED8B092
:10114200022A01C001F002C002F012000350D8B41A
:10115200ADEF08F0AFEF08F0B7EF08F00350D8A4F6
:10116200B5EF08F0B7EF08F0BCEF08F00150FDEC66
:101172000AF0FBEF08F00350D96EDA6A0A0ED9269C
:10118200DE50DE10D8B4C8EF08F0CAEF08F0E3EF83
:1011920008F00350D96EDA6A0A0ED9260350E16EBE
:1011A200E26A030EE126DE50E65CE650800A086E33
:1011B200DE50800A0858D8B0E1EF08F0E3EF08F0FB
:1011C200FBEF08F00350D96EDA6A030ED926DF501E
:1011D200046E0350D96EDA6ADF500424D96EDA6ADB
:1011E20001C0DFFF0350D96EDA6A030ED926DE2A68
:1011F200000EDD221200000E0C6E000E0B6ECCEC07
:1012020006F00D6E230E0D18D8A40AEF09F00CEFAC
:1012120009F00EEF09F03FEF09F02F0E0D6414EF05
:1012220009F016EF09F032EF09F03A0E0D601CEFEB
:1012320009F01EEF09F032EF09F00BC001F00CC00B
:1012420002F0000E046E0A0E036ED1EC0AF00D508D
:101252000126000E0222D00E01240B6EFF0E022088
:101262000C6E060E0A6E130E096EAE0EE82EFED737
:10127200092EFCD70A2EFAD700EF09F00BC007F0AF
:101282000CC008F0120064EF09F07DEC09F00009CF
:10129200D8A44EEF09F050EF09F046EF09F002C072
:1012A200F6FF03C0F7FFF86A070EF76403D00800E1
:1012B200F55005D0F6CFE1FFF7CFE2FFE75023EC80
:1012C2000AF0024A032A02C0F6FF03C0F7FFF86AD7
:1012D200070EF76403D00800F55005D0F6CFE1FF02
:1012E200F7CFE2FFE7500009D8A47AEF09F07CEFCC
:1012F20009F046EF09F012008D848D90F5EC0AF0AA
:101302008D82F5EC0AF083AE89EF09F08BEF09F0DC
:1013120096EF09F08D92F5EC0AF08D82F5EC0AF069
:101322008D928D94010E9FEF09F08D92F5EC0AF0EB
:101332008D82F5EC0AF08D928D94000E1200F40E5F
:10134200F66E150EF76E000EF86E00EE56F010EE09
:1013520006F00900F5CFEEFFE550E150FAE1000199
:10136200956B946B936B926B916B906B00EE31F07B
:10137200250EEE6AE806FDE1000EF86E000121EF8F
:1013820004F001C003F003460346C2500318C30B26
:101392000318C26E0D0E036EFC0EE82EFED7032E4E
:1013A200FCD7C282C2B2D8EF09F0DAEF09F0D3EF6C
:1013B20009F0C450046E036AC3500324016E000E88
:1013C2000420026E1200016E0F0E95160F0E831688
:1013D20001508009F00B83128D948D90F5EC0AF088
:1013E2008D82F5EC0AF08D920F0E83160138F00B08
:1013F200F00B8312F5EC0AF08D82F5EC0AF08D9277
:10140200F00E951212001BC01DF010EF0AF01AC068
:101412000FF01D0E106E1CC011F044EC05F01DC043
:10142200F6FF080EF76E0800F5500009D8A41CEF6D
:101432000AF01EEF0AF008EF0AF0000E1B6E000E13
:101442001A6E1200016E0F0E95160F0E83160150C2
:10145200F00B83128D808D94F5EC0AF08D82F5EC01
:101462000AF08D920F0E83160138F00BF00B8312E7
:10147200F5EC0AF08D82F5EC0AF08D92F00E9512E1
:101482001200016E0F0E95160F0E83160150F00B0F
:1014920083128D948D90F5EC0AF08D82F5EC0AF0B2
:1014A2008D920F0E83160138F00BF00B8312F5ECC0
:1014B2000AF08D82F5EC0AF08D92F00E9512120070
:1014C200200E226E1EC023F0000E276E000E266E26
:1014D200000E2E6E000E2D6E230E1A6E1FC01BF014
:1014E200220E1C6E04EC0AF01E502624D96EDA6A13
:1014F200DF6A120008BE80EF0AF082EF0AF088EF7E
:101502000AF007C007F008C008F094EF0AF007C01D
:1015120009F008C00AF0091E0A1E094A0A2A09C06F
:1015220007F00AC008F012000150585C5950800AB6
:10153200036E0250800A0358D8B0A2EF0AF0A4EF5B
:101542000AF0A7EF0AF08284A8EF0AF08294120050
:101552000150565C5750800A036E0250800A0358AD
:10156200D8B0B6EF0AF0B8EF0AF0BBEF0AF0828209
:10157200BCEF0AF0829212005A50015C0250800ABB
:10158200036E5B50800A0358D8B0CAEF0AF0CCEF62
:101592000AF0CFEF0AF08280D0EF0AF082901200B8
:1015A20001500302F3CF05F0F4CF06F0015004021C
:1015B200F350062602500302F350062605C001F03E
:1015C20006C002F01200210E016E760EE82EFED742
:1015D200012EFCD700D01200620E016E660EE82EBC
:1015E200FED7012EFCD71200210EE82EFED70000F6
:0A15F200120007001400320012007E
:020000040020DA
:08000000FFFFFFFFFFFFFFFF00
:020000040030CA
:0E000000000C1F1EFF8181FF0FC00FE00F409C
:00000001FF
